{
  "abi": [
    {
      "inputs": [
        {
          "internalType": "address",
          "name": "tokenAddress",
          "type": "address"
        },
        {
          "internalType": "uint256",
          "name": "supply",
          "type": "uint256"
        },
        {
          "internalType": "uint256",
          "name": "_rounds",
          "type": "uint256"
        }
      ],
      "stateMutability": "nonpayable",
      "type": "constructor"
    },
    {
      "inputs": [
        {
          "internalType": "address",
          "name": "owner",
          "type": "address"
        }
      ],
      "name": "OwnableInvalidOwner",
      "type": "error"
    },
    {
      "inputs": [
        {
          "internalType": "address",
          "name": "account",
          "type": "address"
        }
      ],
      "name": "OwnableUnauthorizedAccount",
      "type": "error"
    },
    {
      "anonymous": false,
      "inputs": [
        {
          "indexed": true,
          "internalType": "address",
          "name": "previousOwner",
          "type": "address"
        },
        {
          "indexed": true,
          "internalType": "address",
          "name": "newOwner",
          "type": "address"
        }
      ],
      "name": "OwnershipTransferred",
      "type": "event"
    },
    {
      "inputs": [],
      "name": "bid",
      "outputs": [],
      "stateMutability": "payable",
      "type": "function"
    },
    {
      "inputs": [],
      "name": "currentRound",
      "outputs": [
        {
          "internalType": "uint256",
          "name": "",
          "type": "uint256"
        }
      ],
      "stateMutability": "view",
      "type": "function"
    },
    {
      "inputs": [],
      "name": "endRound",
      "outputs": [],
      "stateMutability": "nonpayable",
      "type": "function"
    },
    {
      "inputs": [],
      "name": "highestBid",
      "outputs": [
        {
          "internalType": "uint256",
          "name": "",
          "type": "uint256"
        }
      ],
      "stateMutability": "view",
      "type": "function"
    },
    {
      "inputs": [],
      "name": "highestBidder",
      "outputs": [
        {
          "internalType": "address",
          "name": "",
          "type": "address"
        }
      ],
      "stateMutability": "view",
      "type": "function"
    },
    {
      "inputs": [],
      "name": "owner",
      "outputs": [
        {
          "internalType": "address",
          "name": "",
          "type": "address"
        }
      ],
      "stateMutability": "view",
      "type": "function"
    },
    {
      "inputs": [],
      "name": "renounceOwnership",
      "outputs": [],
      "stateMutability": "nonpayable",
      "type": "function"
    },
    {
      "inputs": [],
      "name": "rounds",
      "outputs": [
        {
          "internalType": "uint256",
          "name": "",
          "type": "uint256"
        }
      ],
      "stateMutability": "view",
      "type": "function"
    },
    {
      "inputs": [],
      "name": "start",
      "outputs": [
        {
          "internalType": "uint256",
          "name": "",
          "type": "uint256"
        }
      ],
      "stateMutability": "view",
      "type": "function"
    },
    {
      "inputs": [],
      "name": "supplyPerRound",
      "outputs": [
        {
          "internalType": "uint256",
          "name": "",
          "type": "uint256"
        }
      ],
      "stateMutability": "view",
      "type": "function"
    },
    {
      "inputs": [],
      "name": "token",
      "outputs": [
        {
          "internalType": "contract ClaimToken",
          "name": "",
          "type": "address"
        }
      ],
      "stateMutability": "view",
      "type": "function"
    },
    {
      "inputs": [
        {
          "internalType": "address",
          "name": "newOwner",
          "type": "address"
        }
      ],
      "name": "transferOwnership",
      "outputs": [],
      "stateMutability": "nonpayable",
      "type": "function"
    }
  ],
  "bytecode": {
    "object": "0x608060405234801561001057600080fd5b5060405161073138038061073183398101604081905261002f916100e9565b338061005557604051631e4fbdf760e01b81526000600482015260240160405180910390fd5b61005e81610099565b50600180546001600160a01b0319166001600160a01b03851617905542600255600381905561008d818361012c565b6004555061014e915050565b600080546001600160a01b038381166001600160a01b0319831681178455604051919092169283917f8be0079c531659141344cd1fd0a4f28419497f9722a3daafe3b4186f6b6457e09190a35050565b6000806000606084860312156100fe57600080fd5b83516001600160a01b038116811461011557600080fd5b602085015160409095015190969495509392505050565b60008261014957634e487b7160e01b600052601260045260246000fd5b500490565b6105d48061015d6000396000f3fe6080604052600436106100a75760003560e01c806391f901571161006457806391f9015714610151578063a2e800ad14610171578063be9a655514610187578063d57bde791461019d578063f2fde38b146101b3578063fc0c546a146101d357600080fd5b80631998aeef146100ac578063715018a6146100b6578063749aa2d9146100cb57806375978a3e146100e05780638a19c8bc146101095780638da5cb5b1461011f575b600080fd5b6100b46101f3565b005b3480156100c257600080fd5b506100b46102f6565b3480156100d757600080fd5b506100b461030a565b3480156100ec57600080fd5b506100f660045481565b6040519081526020015b60405180910390f35b34801561011557600080fd5b506100f660055481565b34801561012b57600080fd5b506000546001600160a01b03165b6040516001600160a01b039091168152602001610100565b34801561015d57600080fd5b50600654610139906001600160a01b031681565b34801561017d57600080fd5b506100f660035481565b34801561019357600080fd5b506100f660025481565b3480156101a957600080fd5b506100f660075481565b3480156101bf57600080fd5b506100b46101ce366004610525565b61046a565b3480156101df57600080fd5b50600154610139906001600160a01b031681565b600354600554106102475760405162461bcd60e51b8152602060048201526019602482015278105d58dd1a5bdb8e88185b1b081c9bdd5b991cc8195b991959603a1b60448201526064015b60405180910390fd5b600754341161028f5760405162461bcd60e51b815260206004820152601460248201527341756374696f6e3a2062696420746f6f206c6f7760601b604482015260640161023e565b6006546001600160a01b0316156102de576006546007546040516001600160a01b039092169181156108fc0291906000818181858888f193505050501580156102dc573d6000803e3d6000fd5b505b600680546001600160a01b0319163317905534600755565b6102fe6104a8565b61030860006104d5565b565b6103126104a8565b600354600554106103615760405162461bcd60e51b8152602060048201526019602482015278105d58dd1a5bdb8e88185b1b081c9bdd5b991cc8195b991959603a1b604482015260640161023e565b6001600560008282546103749190610555565b90915550506006546001600160a01b031615610308576001546006546004805460405163a9059cbb60e01b81526001600160a01b0393841692810192909252602482015291169063a9059cbb906044016020604051808303816000875af11580156103e3573d6000803e3d6000fd5b505050506040513d601f19601f82011682018060405250810190610407919061057c565b6104535760405162461bcd60e51b815260206004820152601860248201527f41756374696f6e3a207472616e73666572206661696c65640000000000000000604482015260640161023e565b600680546001600160a01b03191690556000600755565b6104726104a8565b6001600160a01b03811661049c57604051631e4fbdf760e01b81526000600482015260240161023e565b6104a5816104d5565b50565b6000546001600160a01b031633146103085760405163118cdaa760e01b815233600482015260240161023e565b600080546001600160a01b038381166001600160a01b0319831681178455604051919092169283917f8be0079c531659141344cd1fd0a4f28419497f9722a3daafe3b4186f6b6457e09190a35050565b60006020828403121561053757600080fd5b81356001600160a01b038116811461054e57600080fd5b9392505050565b8082018082111561057657634e487b7160e01b600052601160045260246000fd5b92915050565b60006020828403121561058e57600080fd5b8151801515811461054e57600080fdfea2646970667358221220afe55dc7542fa7e74e723417bdeb8ab708b1f24c706f2d5ecd9ec0bd9426353c64736f6c63430008160033",
    "linkReferences": {}
  },
  "methodIdentifiers": {
    "bid()": "1998aeef",
    "currentRound()": "8a19c8bc",
    "endRound()": "749aa2d9",
    "highestBid()": "d57bde79",
    "highestBidder()": "91f90157",
    "owner()": "8da5cb5b",
    "renounceOwnership()": "715018a6",
    "rounds()": "a2e800ad",
    "start()": "be9a6555",
    "supplyPerRound()": "75978a3e",
    "token()": "fc0c546a",
    "transferOwnership(address)": "f2fde38b"
  },
  "id": 26
}