{
  "abi": [
    {
      "inputs": [],
      "stateMutability": "nonpayable",
      "type": "constructor"
    },
    {
      "inputs": [
        {
          "internalType": "address",
          "name": "owner",
          "type": "address"
        }
      ],
      "name": "OwnableInvalidOwner",
      "type": "error"
    },
    {
      "inputs": [
        {
          "internalType": "address",
          "name": "account",
          "type": "address"
        }
      ],
      "name": "OwnableUnauthorizedAccount",
      "type": "error"
    },
    {
      "anonymous": false,
      "inputs": [
        {
          "indexed": true,
          "internalType": "address",
          "name": "previousOwner",
          "type": "address"
        },
        {
          "indexed": true,
          "internalType": "address",
          "name": "newOwner",
          "type": "address"
        }
      ],
      "name": "OwnershipTransferred",
      "type": "event"
    },
    {
      "inputs": [
        {
          "internalType": "uint256",
          "name": "index",
          "type": "uint256"
        }
      ],
      "name": "endRound",
      "outputs": [],
      "stateMutability": "nonpayable",
      "type": "function"
    },
    {
      "inputs": [
        {
          "internalType": "uint256",
          "name": "index",
          "type": "uint256"
        }
      ],
      "name": "getAuction",
      "outputs": [
        {
          "internalType": "address",
          "name": "",
          "type": "address"
        }
      ],
      "stateMutability": "view",
      "type": "function"
    },
    {
      "inputs": [
        {
          "internalType": "uint256",
          "name": "index",
          "type": "uint256"
        }
      ],
      "name": "getEnergyType",
      "outputs": [
        {
          "internalType": "string",
          "name": "",
          "type": "string"
        }
      ],
      "stateMutability": "view",
      "type": "function"
    },
    {
      "inputs": [],
      "name": "getNumberOfTokens",
      "outputs": [
        {
          "internalType": "uint256",
          "name": "",
          "type": "uint256"
        }
      ],
      "stateMutability": "view",
      "type": "function"
    },
    {
      "inputs": [
        {
          "internalType": "uint256",
          "name": "index",
          "type": "uint256"
        }
      ],
      "name": "getToken",
      "outputs": [
        {
          "internalType": "address",
          "name": "",
          "type": "address"
        }
      ],
      "stateMutability": "view",
      "type": "function"
    },
    {
      "inputs": [
        {
          "internalType": "uint256",
          "name": "index",
          "type": "uint256"
        }
      ],
      "name": "getTradeClaims",
      "outputs": [
        {
          "internalType": "address",
          "name": "",
          "type": "address"
        }
      ],
      "stateMutability": "view",
      "type": "function"
    },
    {
      "inputs": [
        {
          "internalType": "string",
          "name": "name",
          "type": "string"
        },
        {
          "internalType": "uint256",
          "name": "supply",
          "type": "uint256"
        },
        {
          "internalType": "string",
          "name": "energyType",
          "type": "string"
        },
        {
          "internalType": "uint256",
          "name": "rounds",
          "type": "uint256"
        }
      ],
      "name": "issueToken",
      "outputs": [],
      "stateMutability": "nonpayable",
      "type": "function"
    },
    {
      "inputs": [],
      "name": "owner",
      "outputs": [
        {
          "internalType": "address",
          "name": "",
          "type": "address"
        }
      ],
      "stateMutability": "view",
      "type": "function"
    },
    {
      "inputs": [],
      "name": "renounceOwnership",
      "outputs": [],
      "stateMutability": "nonpayable",
      "type": "function"
    },
    {
      "inputs": [
        {
          "internalType": "uint256",
          "name": "",
          "type": "uint256"
        }
      ],
      "name": "tokens",
      "outputs": [
        {
          "internalType": "string",
          "name": "energyType",
          "type": "string"
        },
        {
          "internalType": "contract ClaimToken",
          "name": "token",
          "type": "address"
        },
        {
          "internalType": "contract Auction",
          "name": "auction",
          "type": "address"
        },
        {
          "internalType": "contract TradeClaims",
          "name": "tradeClaims",
          "type": "address"
        }
      ],
      "stateMutability": "view",
      "type": "function"
    },
    {
      "inputs": [
        {
          "internalType": "address",
          "name": "newOwner",
          "type": "address"
        }
      ],
      "name": "transferOwnership",
      "outputs": [],
      "stateMutability": "nonpayable",
      "type": "function"
    }
  ],
  "bytecode": {
    "object": "0x608060405234801561001057600080fd5b50338061003757604051631e4fbdf760e01b81526000600482015260240160405180910390fd5b61004081610046565b50610096565b600080546001600160a01b038381166001600160a01b0319831681178455604051919092169283917f8be0079c531659141344cd1fd0a4f28419497f9722a3daafe3b4186f6b6457e09190a35050565b612fae806100a56000396000f3fe60806040523480156200001157600080fd5b5060043610620000b75760003560e01c80638da5cb5b116200007a5780638da5cb5b14620001585780639584083c146200016a578063d7bd3d031462000181578063e4b50cb814620001a7578063efeecb5114620001be578063f2fde38b14620001d057600080fd5b80634f64b2be14620000bc5780635a1e6ca114620000ee5780635f21b1b81462000107578063715018a6146200013757806378bd79351462000141575b600080fd5b620000d3620000cd3660046200084e565b620001e7565b604051620000e59493929190620008b0565b60405180910390f35b62000105620000ff3660046200084e565b620002c7565b005b6200011e620001183660046200084e565b62000363565b6040516001600160a01b039091168152602001620000e5565b620001056200039e565b6200011e620001523660046200084e565b620003b6565b6000546001600160a01b03166200011e565b620001056200017b36600462000999565b620003f1565b62000198620001923660046200084e565b62000665565b604051620000e5919062000a15565b6200011e620001b83660046200084e565b62000726565b600154604051908152602001620000e5565b62000105620001e136600462000a31565b62000761565b60018181548110620001f857600080fd5b90600052602060002090600402016000915090508060000180546200021d9062000a5c565b80601f01602080910402602001604051908101604052809291908181526020018280546200024b9062000a5c565b80156200029c5780601f1062000270576101008083540402835291602001916200029c565b820191906000526020600020905b8154815290600101906020018083116200027e57829003601f168201915b505050506001830154600284015460039094015492936001600160a01b039182169390821692501684565b620002d1620007a5565b60018181548110620002e757620002e762000a98565b906000526020600020906004020160020160009054906101000a90046001600160a01b03166001600160a01b031663749aa2d96040518163ffffffff1660e01b8152600401600060405180830381600087803b1580156200034757600080fd5b505af11580156200035c573d6000803e3d6000fd5b5050505050565b6000600182815481106200037b576200037b62000a98565b60009182526020909120600360049092020101546001600160a01b031692915050565b620003a8620007a5565b620003b46000620007d4565b565b600060018281548110620003ce57620003ce62000a98565b60009182526020909120600260049092020101546001600160a01b031692915050565b620003fb620007a5565b600084846040516200040d9062000824565b6200041a92919062000aae565b604051809103906000f08015801562000437573d6000803e3d6000fd5b50905060008185846040516200044d9062000832565b6001600160a01b03909316835260208301919091526040820152606001604051809103906000f08015801562000487573d6000803e3d6000fd5b5090506000826040516200049b9062000840565b6001600160a01b039091168152602001604051809103906000f080158015620004c8573d6000803e3d6000fd5b50604080516080810182528781526001600160a01b0380871660208301528581169282019290925290821660608201526001805480820182556000919091528151929350909160049091027fb10e2d527612073b26eecdfd717e6a320cf44b4afac2b0732d9fcbe2b7fa0cf60190819062000544908262000b27565b5060208201516001820180546001600160a01b03199081166001600160a01b039384161790915560408085015160028501805484169185169190911790556060909401516003909301805490911692821692909217909155905163a9059cbb60e01b81528382166004820152602481018890529084169063a9059cbb906044016020604051808303816000875af1158015620005e4573d6000803e3d6000fd5b505050506040513d601f19601f820116820180604052508101906200060a919062000bf4565b6200065c5760405162461bcd60e51b815260206004820152601c60248201527f546f6b656e4973737565723a207472616e73666572206661696c65640000000060448201526064015b60405180910390fd5b50505050505050565b6060600182815481106200067d576200067d62000a98565b906000526020600020906004020160000180546200069b9062000a5c565b80601f0160208091040260200160405190810160405280929190818152602001828054620006c99062000a5c565b80156200071a5780601f10620006ee576101008083540402835291602001916200071a565b820191906000526020600020905b815481529060010190602001808311620006fc57829003601f168201915b50505050509050919050565b6000600182815481106200073e576200073e62000a98565b60009182526020909120600160049092020101546001600160a01b031692915050565b6200076b620007a5565b6001600160a01b0381166200079757604051631e4fbdf760e01b81526000600482015260240162000653565b620007a281620007d4565b50565b6000546001600160a01b03163314620003b45760405163118cdaa760e01b815233600482015260240162000653565b600080546001600160a01b038381166001600160a01b0319831681178455604051919092169283917f8be0079c531659141344cd1fd0a4f28419497f9722a3daafe3b4186f6b6457e09190a35050565b610b8c8062000c1983390190565b61073180620017a583390190565b6110a38062001ed683390190565b6000602082840312156200086157600080fd5b5035919050565b6000815180845260005b81811015620008905760208185018101518683018201520162000872565b506000602082860101526020601f19601f83011685010191505092915050565b608081526000620008c5608083018762000868565b6001600160a01b0395861660208401529385166040830152509216606090920191909152919050565b634e487b7160e01b600052604160045260246000fd5b600082601f8301126200091657600080fd5b813567ffffffffffffffff80821115620009345762000934620008ee565b604051601f8301601f19908116603f011681019082821181831017156200095f576200095f620008ee565b816040528381528660208588010111156200097957600080fd5b836020870160208301376000602085830101528094505050505092915050565b60008060008060808587031215620009b057600080fd5b843567ffffffffffffffff80821115620009c957600080fd5b620009d78883890162000904565b9550602087013594506040870135915080821115620009f557600080fd5b5062000a048782880162000904565b949793965093946060013593505050565b60208152600062000a2a602083018462000868565b9392505050565b60006020828403121562000a4457600080fd5b81356001600160a01b038116811462000a2a57600080fd5b600181811c9082168062000a7157607f821691505b60208210810362000a9257634e487b7160e01b600052602260045260246000fd5b50919050565b634e487b7160e01b600052603260045260246000fd5b60408152600062000ac3604083018562000868565b90508260208301529392505050565b601f82111562000b22576000816000526020600020601f850160051c8101602086101562000afd5750805b601f850160051c820191505b8181101562000b1e5782815560010162000b09565b5050505b505050565b815167ffffffffffffffff81111562000b445762000b44620008ee565b62000b5c8162000b55845462000a5c565b8462000ad2565b602080601f83116001811462000b94576000841562000b7b5750858301515b600019600386901b1c1916600185901b17855562000b1e565b600085815260208120601f198616915b8281101562000bc55788860151825594840194600190910190840162000ba4565b508582101562000be45787850151600019600388901b60f8161c191681555b5050505050600190811b01905550565b60006020828403121562000c0757600080fd5b8151801515811462000a2a57600080fdfe60806040523480156200001157600080fd5b5060405162000b8c38038062000b8c8339810160408190526200003491620001fb565b8180600362000044828262000367565b50600462000053828262000367565b5050506200006833826200007060201b60201c565b50506200045b565b6001600160a01b038216620000a05760405163ec442f0560e01b8152600060048201526024015b60405180910390fd5b620000ae60008383620000b2565b5050565b6001600160a01b038316620000e1578060026000828254620000d5919062000433565b90915550620001559050565b6001600160a01b03831660009081526020819052604090205481811015620001365760405163391434e360e21b81526001600160a01b0385166004820152602481018290526044810183905260640162000097565b6001600160a01b03841660009081526020819052604090209082900390555b6001600160a01b038216620001735760028054829003905562000192565b6001600160a01b03821660009081526020819052604090208054820190555b816001600160a01b0316836001600160a01b03167fddf252ad1be2c89b69c2b068fc378daa952ba7f163c4a11628f55a4df523b3ef83604051620001d891815260200190565b60405180910390a3505050565b634e487b7160e01b600052604160045260246000fd5b600080604083850312156200020f57600080fd5b82516001600160401b03808211156200022757600080fd5b818501915085601f8301126200023c57600080fd5b815181811115620002515762000251620001e5565b604051601f8201601f19908116603f011681019083821181831017156200027c576200027c620001e5565b816040528281526020935088848487010111156200029957600080fd5b600091505b82821015620002bd57848201840151818301850152908301906200029e565b6000928101840192909252509401519395939450505050565b600181811c90821680620002eb57607f821691505b6020821081036200030c57634e487b7160e01b600052602260045260246000fd5b50919050565b601f82111562000362576000816000526020600020601f850160051c810160208610156200033d5750805b601f850160051c820191505b818110156200035e5782815560010162000349565b5050505b505050565b81516001600160401b03811115620003835762000383620001e5565b6200039b81620003948454620002d6565b8462000312565b602080601f831160018114620003d35760008415620003ba5750858301515b600019600386901b1c1916600185901b1785556200035e565b600085815260208120601f198616915b828110156200040457888601518255948401946001909101908401620003e3565b5085821015620004235787850151600019600388901b60f8161c191681555b5050505050600190811b01905550565b808201808211156200045557634e487b7160e01b600052601160045260246000fd5b92915050565b610721806200046b6000396000f3fe608060405234801561001057600080fd5b50600436106100935760003560e01c8063313ce56711610066578063313ce567146100fe57806370a082311461010d57806395d89b4114610136578063a9059cbb1461013e578063dd62ed3e1461015157600080fd5b806306fdde0314610098578063095ea7b3146100b657806318160ddd146100d957806323b872dd146100eb575b600080fd5b6100a061018a565b6040516100ad919061056a565b60405180910390f35b6100c96100c43660046105d5565b61021c565b60405190151581526020016100ad565b6002545b6040519081526020016100ad565b6100c96100f93660046105ff565b610236565b604051601281526020016100ad565b6100dd61011b36600461063b565b6001600160a01b031660009081526020819052604090205490565b6100a061025a565b6100c961014c3660046105d5565b610269565b6100dd61015f36600461065d565b6001600160a01b03918216600090815260016020908152604080832093909416825291909152205490565b60606003805461019990610690565b80601f01602080910402602001604051908101604052809291908181526020018280546101c590610690565b80156102125780601f106101e757610100808354040283529160200191610212565b820191906000526020600020905b8154815290600101906020018083116101f557829003601f168201915b5050505050905090565b60003361022a818585610277565b60019150505b92915050565b600033610244858285610289565b61024f85858561030c565b506001949350505050565b60606004805461019990610690565b60003361022a81858561030c565b610284838383600161036b565b505050565b6001600160a01b03838116600090815260016020908152604080832093861683529290522054600019811461030657818110156102f757604051637dc7a0d960e11b81526001600160a01b038416600482015260248101829052604481018390526064015b60405180910390fd5b6103068484848403600061036b565b50505050565b6001600160a01b03831661033657604051634b637e8f60e11b8152600060048201526024016102ee565b6001600160a01b0382166103605760405163ec442f0560e01b8152600060048201526024016102ee565b610284838383610440565b6001600160a01b0384166103955760405163e602df0560e01b8152600060048201526024016102ee565b6001600160a01b0383166103bf57604051634a1406b160e11b8152600060048201526024016102ee565b6001600160a01b038085166000908152600160209081526040808320938716835292905220829055801561030657826001600160a01b0316846001600160a01b03167f8c5be1e5ebec7d5bd14f71427d1e84f3dd0314c0f7b2291e5b200ac8c7c3b9258460405161043291815260200190565b60405180910390a350505050565b6001600160a01b03831661046b57806002600082825461046091906106ca565b909155506104dd9050565b6001600160a01b038316600090815260208190526040902054818110156104be5760405163391434e360e21b81526001600160a01b038516600482015260248101829052604481018390526064016102ee565b6001600160a01b03841660009081526020819052604090209082900390555b6001600160a01b0382166104f957600280548290039055610518565b6001600160a01b03821660009081526020819052604090208054820190555b816001600160a01b0316836001600160a01b03167fddf252ad1be2c89b69c2b068fc378daa952ba7f163c4a11628f55a4df523b3ef8360405161055d91815260200190565b60405180910390a3505050565b60006020808352835180602085015260005b818110156105985785810183015185820160400152820161057c565b506000604082860101526040601f19601f8301168501019250505092915050565b80356001600160a01b03811681146105d057600080fd5b919050565b600080604083850312156105e857600080fd5b6105f1836105b9565b946020939093013593505050565b60008060006060848603121561061457600080fd5b61061d846105b9565b925061062b602085016105b9565b9150604084013590509250925092565b60006020828403121561064d57600080fd5b610656826105b9565b9392505050565b6000806040838503121561067057600080fd5b610679836105b9565b9150610687602084016105b9565b90509250929050565b600181811c908216806106a457607f821691505b6020821081036106c457634e487b7160e01b600052602260045260246000fd5b50919050565b8082018082111561023057634e487b7160e01b600052601160045260246000fdfea2646970667358221220d04c24a69cbdb49368a4b06002332b60e7647d4931a64592ce58fc817bff639364736f6c63430008160033608060405234801561001057600080fd5b5060405161073138038061073183398101604081905261002f916100e9565b338061005557604051631e4fbdf760e01b81526000600482015260240160405180910390fd5b61005e81610099565b50600180546001600160a01b0319166001600160a01b03851617905542600255600381905561008d818361012c565b6004555061014e915050565b600080546001600160a01b038381166001600160a01b0319831681178455604051919092169283917f8be0079c531659141344cd1fd0a4f28419497f9722a3daafe3b4186f6b6457e09190a35050565b6000806000606084860312156100fe57600080fd5b83516001600160a01b038116811461011557600080fd5b602085015160409095015190969495509392505050565b60008261014957634e487b7160e01b600052601260045260246000fd5b500490565b6105d48061015d6000396000f3fe6080604052600436106100a75760003560e01c806391f901571161006457806391f9015714610151578063a2e800ad14610171578063be9a655514610187578063d57bde791461019d578063f2fde38b146101b3578063fc0c546a146101d357600080fd5b80631998aeef146100ac578063715018a6146100b6578063749aa2d9146100cb57806375978a3e146100e05780638a19c8bc146101095780638da5cb5b1461011f575b600080fd5b6100b46101f3565b005b3480156100c257600080fd5b506100b46102f6565b3480156100d757600080fd5b506100b461030a565b3480156100ec57600080fd5b506100f660045481565b6040519081526020015b60405180910390f35b34801561011557600080fd5b506100f660055481565b34801561012b57600080fd5b506000546001600160a01b03165b6040516001600160a01b039091168152602001610100565b34801561015d57600080fd5b50600654610139906001600160a01b031681565b34801561017d57600080fd5b506100f660035481565b34801561019357600080fd5b506100f660025481565b3480156101a957600080fd5b506100f660075481565b3480156101bf57600080fd5b506100b46101ce366004610525565b61046a565b3480156101df57600080fd5b50600154610139906001600160a01b031681565b600354600554106102475760405162461bcd60e51b8152602060048201526019602482015278105d58dd1a5bdb8e88185b1b081c9bdd5b991cc8195b991959603a1b60448201526064015b60405180910390fd5b600754341161028f5760405162461bcd60e51b815260206004820152601460248201527341756374696f6e3a2062696420746f6f206c6f7760601b604482015260640161023e565b6006546001600160a01b0316156102de576006546007546040516001600160a01b039092169181156108fc0291906000818181858888f193505050501580156102dc573d6000803e3d6000fd5b505b600680546001600160a01b0319163317905534600755565b6102fe6104a8565b61030860006104d5565b565b6103126104a8565b600354600554106103615760405162461bcd60e51b8152602060048201526019602482015278105d58dd1a5bdb8e88185b1b081c9bdd5b991cc8195b991959603a1b604482015260640161023e565b6001600560008282546103749190610555565b90915550506006546001600160a01b031615610308576001546006546004805460405163a9059cbb60e01b81526001600160a01b0393841692810192909252602482015291169063a9059cbb906044016020604051808303816000875af11580156103e3573d6000803e3d6000fd5b505050506040513d601f19601f82011682018060405250810190610407919061057c565b6104535760405162461bcd60e51b815260206004820152601860248201527f41756374696f6e3a207472616e73666572206661696c65640000000000000000604482015260640161023e565b600680546001600160a01b03191690556000600755565b6104726104a8565b6001600160a01b03811661049c57604051631e4fbdf760e01b81526000600482015260240161023e565b6104a5816104d5565b50565b6000546001600160a01b031633146103085760405163118cdaa760e01b815233600482015260240161023e565b600080546001600160a01b038381166001600160a01b0319831681178455604051919092169283917f8be0079c531659141344cd1fd0a4f28419497f9722a3daafe3b4186f6b6457e09190a35050565b60006020828403121561053757600080fd5b81356001600160a01b038116811461054e57600080fd5b9392505050565b8082018082111561057657634e487b7160e01b600052601160045260246000fd5b92915050565b60006020828403121561058e57600080fd5b8151801515811461054e57600080fdfea2646970667358221220afe55dc7542fa7e74e723417bdeb8ab708b1f24c706f2d5ecd9ec0bd9426353c64736f6c63430008160033608060405234801561001057600080fd5b506040516110a33803806110a383398101604081905261002f91610054565b600080546001600160a01b0319166001600160a01b0392909216919091179055610084565b60006020828403121561006657600080fd5b81516001600160a01b038116811461007d57600080fd5b9392505050565b611010806100936000396000f3fe60806040526004361061009c5760003560e01c80638f033028116100645780638f0330281461018b57806398d91a26146101ab57806399e5bcf4146101cb578063cee0d8911461020a578063f8effba31461022a578063fc0c546a1461023d57600080fd5b8063046e9af7146100a15780631a46829c146100b65780635e238103146100d65780636c951ccc1461012f578063823357fa1461016b575b600080fd5b6100b46100af366004610dac565b610275565b005b3480156100c257600080fd5b506100b46100d1366004610dd8565b61044d565b3480156100e257600080fd5b506101156100f1366004610df1565b60026020908152600092835260408084209091529082529020805460019091015482565b604080519283526020830191909152015b60405180910390f35b34801561013b57600080fd5b5061011561014a366004610df1565b60016020818152600093845260408085209091529183529120805491015482565b34801561017757600080fd5b506100b4610186366004610dac565b6104f8565b34801561019757600080fd5b506100b46101a6366004610e1b565b610674565b3480156101b757600080fd5b506100b46101c6366004610dd8565b610883565b3480156101d757600080fd5b506101eb6101e6366004610dd8565b610992565b604080516001600160a01b039093168352602083019190915201610126565b34801561021657600080fd5b506101eb610225366004610dd8565b6109ca565b6100b4610238366004610e47565b6109da565b34801561024957600080fd5b5060005461025d906001600160a01b031681565b6040516001600160a01b039091168152602001610126565b6001600160a01b03811660009081526002602090815260408083208584529091529020546102be5760405162461bcd60e51b81526004016102b590610e69565b60405180910390fd5b6001600160a01b038116600090815260026020908152604080832085845290915290206001015434146103335760405162461bcd60e51b815260206004820152601f60248201527f5472616465436c61696d733a2077726f6e6720657468657220616d6f756e740060448201526064016102b5565b600080546001600160a01b0383811683526002602090815260408085208786529091529283902054925163a9059cbb60e01b81523360048201526024810193909352169063a9059cbb906044016020604051808303816000875af115801561039f573d6000803e3d6000fd5b505050506040513d601f19601f820116820180604052508101906103c39190610ea0565b6103df5760405162461bcd60e51b81526004016102b590610ec9565b6040516001600160a01b038216903480156108fc02916000818181858888f19350505050158015610414573d6000803e3d6000fd5b506001600160a01b03811660009081526002602090815260408083208584529091528120818155600101556104498183610b47565b5050565b33600090815260016020818152604080842085855290915290912001546104865760405162461bcd60e51b81526004016102b590610e69565b33600081815260016020818152604080842086855290915280832090910154905181156108fc0292818181858888f193505050501580156104cb573d6000803e3d6000fd5b50336000818152600160208181526040808420868552909152822082815501556104f59082610c85565b50565b6001600160a01b0381166000908152600160208181526040808420868552909152909120015461053a5760405162461bcd60e51b81526004016102b590610e69565b600080546001600160a01b03838116808452600160209081526040808620888752909152938490205493516323b872dd60e01b81523360048201526024810191909152604481019390935216906323b872dd906064016020604051808303816000875af11580156105af573d6000803e3d6000fd5b505050506040513d601f19601f820116820180604052508101906105d39190610ea0565b6105ef5760405162461bcd60e51b81526004016102b590610ec9565b6001600160a01b0381166000908152600160208181526040808420868552909152808320909101549051339282156108fc02929190818181858888f19350505050158015610641573d6000803e3d6000fd5b506001600160a01b0381166000908152600160208181526040808420868552909152822082815501556104498183610c85565b600082116106945760405162461bcd60e51b81526004016102b590610f00565b600081116106f35760405162461bcd60e51b815260206004820152602660248201527f5472616465436c61696d733a206e6f20657468657220616d6f756e742073706560448201526518da599a595960d21b60648201526084016102b5565b3360009081526002602090815260408083208684529091529020541561072b5760405162461bcd60e51b81526004016102b590610f46565b6000546040516323b872dd60e01b8152336004820152306024820152604481018490526001600160a01b03909116906323b872dd906064016020604051808303816000875af1158015610782573d6000803e3d6000fd5b505050506040513d601f19601f820116820180604052508101906107a69190610ea0565b6107c25760405162461bcd60e51b81526004016102b590610ec9565b60408051808201825292835260208084019283523360008181526002808452848220888352845284822096518755945160019687015583518085019094529083529082019485526004805494850181559052517f8a35acfbc15ff81a39ae7d344fd709f28e8600b4aa8c65c6b64bfe7fe36bd19b9290910291820180546001600160a01b0319166001600160a01b0390921691909117905590517f8a35acfbc15ff81a39ae7d344fd709f28e8600b4aa8c65c6b64bfe7fe36bd19c90910155565b3360009081526002602090815260408083208484529091529020546108ba5760405162461bcd60e51b81526004016102b590610e69565b60008054338083526002602090815260408085208686529091529283902054925163a9059cbb60e01b8152600481019190915260248101929092526001600160a01b03169063a9059cbb906044016020604051808303816000875af1158015610927573d6000803e3d6000fd5b505050506040513d601f19601f8201168201806040525081019061094b9190610ea0565b6109675760405162461bcd60e51b81526004016102b590610ec9565b3360008181526002602090815260408083208584529091528120818155600101556104f59082610b47565b600381815481106109a257600080fd5b6000918252602090912060029091020180546001909101546001600160a01b03909116915082565b600481815481106109a257600080fd5b60003411610a2a5760405162461bcd60e51b815260206004820152601a60248201527f5472616465436c61696d733a206e6f2065746865722073656e7400000000000060448201526064016102b5565b60008111610a4a5760405162461bcd60e51b81526004016102b590610f00565b336000908152600160208181526040808420868552909152909120015415610a845760405162461bcd60e51b81526004016102b590610f46565b6040805180820182529182523460208084019182523360008181526001808452858220888352845285822096518755935195840195909555835180850190945283528201938452600380549182018155909252517fc2575a0e9e593c00f959f8c92f12db2869c3395a3b0502d05e2516446f71f85b600290920291820180546001600160a01b0319166001600160a01b0390921691909117905590517fc2575a0e9e593c00f959f8c92f12db2869c3395a3b0502d05e2516446f71f85c90910155565b60005b600454811015610c8057826001600160a01b031660048281548110610b7157610b71610f87565b60009182526020909120600290910201546001600160a01b0316148015610bbb57508160048281548110610ba757610ba7610f87565b906000526020600020906002020160010154145b15610c785760048054610bd090600190610f9d565b81548110610be057610be0610f87565b906000526020600020906002020160048281548110610c0157610c01610f87565b60009182526020909120825460029092020180546001600160a01b0319166001600160a01b039092169190911781556001918201549101556004805480610c4a57610c4a610fc4565b60008281526020812060026000199093019283020180546001600160a01b0319168155600101559055505050565b600101610b4a565b505050565b60005b600354811015610c8057826001600160a01b031660038281548110610caf57610caf610f87565b60009182526020909120600290910201546001600160a01b0316148015610cf957508160038281548110610ce557610ce5610f87565b906000526020600020906002020160010154145b15610d885760038054610d0e90600190610f9d565b81548110610d1e57610d1e610f87565b906000526020600020906002020160038281548110610d3f57610d3f610f87565b60009182526020909120825460029092020180546001600160a01b0319166001600160a01b039092169190911781556001918201549101556003805480610c4a57610c4a610fc4565b600101610c88565b80356001600160a01b0381168114610da757600080fd5b919050565b60008060408385031215610dbf57600080fd5b82359150610dcf60208401610d90565b90509250929050565b600060208284031215610dea57600080fd5b5035919050565b60008060408385031215610e0457600080fd5b610e0d83610d90565b946020939093013593505050565b600080600060608486031215610e3057600080fd5b505081359360208301359350604090920135919050565b60008060408385031215610e5a57600080fd5b50508035926020909101359150565b6020808252601c908201527f5472616465436c61696d733a206e6f206f666665722065786973747300000000604082015260600190565b600060208284031215610eb257600080fd5b81518015158114610ec257600080fd5b9392505050565b6020808252601c908201527f5472616465436c61696d733a207472616e73666572206661696c656400000000604082015260600190565b60208082526026908201527f5472616465436c61696d733a206e6f20746f6b656e20616d6f756e742073706560408201526518da599a595960d21b606082015260800190565b60208082526021908201527f5472616465436c61696d733a206f6666657220616c72656164792065786973746040820152607360f81b606082015260800190565b634e487b7160e01b600052603260045260246000fd5b81810381811115610fbe57634e487b7160e01b600052601160045260246000fd5b92915050565b634e487b7160e01b600052603160045260246000fdfea2646970667358221220f0815f8306626ea2ed160822c31cc6b82a60c9fea9b6a7c003fa6b3d916b6c6064736f6c63430008160033a2646970667358221220440a8aab804e51a0d9d79b739ac7039820eedc337cd43a36a56def9a086450cf64736f6c63430008160033",
    "linkReferences": {}
  },
  "methodIdentifiers": {
    "endRound(uint256)": "5a1e6ca1",
    "getAuction(uint256)": "78bd7935",
    "getEnergyType(uint256)": "d7bd3d03",
    "getNumberOfTokens()": "efeecb51",
    "getToken(uint256)": "e4b50cb8",
    "getTradeClaims(uint256)": "5f21b1b8",
    "issueToken(string,uint256,string,uint256)": "9584083c",
    "owner()": "8da5cb5b",
    "renounceOwnership()": "715018a6",
    "tokens(uint256)": "4f64b2be",
    "transferOwnership(address)": "f2fde38b"
  },
  "id": 28
}