{
  "abi": [
    {
      "inputs": [
        {
          "internalType": "address",
          "name": "tokenAddress",
          "type": "address"
        }
      ],
      "stateMutability": "nonpayable",
      "type": "constructor"
    },
    {
      "inputs": [
        {
          "internalType": "uint256",
          "name": "id",
          "type": "uint256"
        },
        {
          "internalType": "address",
          "name": "buyer",
          "type": "address"
        }
      ],
      "name": "acceptBuyOffer",
      "outputs": [],
      "stateMutability": "nonpayable",
      "type": "function"
    },
    {
      "inputs": [
        {
          "internalType": "uint256",
          "name": "id",
          "type": "uint256"
        },
        {
          "internalType": "address",
          "name": "seller",
          "type": "address"
        }
      ],
      "name": "acceptSellOffer",
      "outputs": [],
      "stateMutability": "payable",
      "type": "function"
    },
    {
      "inputs": [
        {
          "internalType": "uint256",
          "name": "",
          "type": "uint256"
        }
      ],
      "name": "buyOfferIndex",
      "outputs": [
        {
          "internalType": "address",
          "name": "owner",
          "type": "address"
        },
        {
          "internalType": "uint256",
          "name": "id",
          "type": "uint256"
        }
      ],
      "stateMutability": "view",
      "type": "function"
    },
    {
      "inputs": [
        {
          "internalType": "address",
          "name": "",
          "type": "address"
        },
        {
          "internalType": "uint256",
          "name": "",
          "type": "uint256"
        }
      ],
      "name": "buyOffers",
      "outputs": [
        {
          "internalType": "uint256",
          "name": "tokenAmount",
          "type": "uint256"
        },
        {
          "internalType": "uint256",
          "name": "etherAmount",
          "type": "uint256"
        }
      ],
      "stateMutability": "view",
      "type": "function"
    },
    {
      "inputs": [
        {
          "internalType": "uint256",
          "name": "id",
          "type": "uint256"
        }
      ],
      "name": "cancelBuyOffer",
      "outputs": [],
      "stateMutability": "nonpayable",
      "type": "function"
    },
    {
      "inputs": [
        {
          "internalType": "uint256",
          "name": "id",
          "type": "uint256"
        }
      ],
      "name": "cancelSellOffer",
      "outputs": [],
      "stateMutability": "nonpayable",
      "type": "function"
    },
    {
      "inputs": [
        {
          "internalType": "uint256",
          "name": "id",
          "type": "uint256"
        },
        {
          "internalType": "uint256",
          "name": "tokenAmount",
          "type": "uint256"
        }
      ],
      "name": "createBuyOffer",
      "outputs": [],
      "stateMutability": "payable",
      "type": "function"
    },
    {
      "inputs": [
        {
          "internalType": "uint256",
          "name": "id",
          "type": "uint256"
        },
        {
          "internalType": "uint256",
          "name": "tokenAmount",
          "type": "uint256"
        },
        {
          "internalType": "uint256",
          "name": "etherAmount",
          "type": "uint256"
        }
      ],
      "name": "createSellOffer",
      "outputs": [],
      "stateMutability": "nonpayable",
      "type": "function"
    },
    {
      "inputs": [
        {
          "internalType": "uint256",
          "name": "",
          "type": "uint256"
        }
      ],
      "name": "sellOfferIndex",
      "outputs": [
        {
          "internalType": "address",
          "name": "owner",
          "type": "address"
        },
        {
          "internalType": "uint256",
          "name": "id",
          "type": "uint256"
        }
      ],
      "stateMutability": "view",
      "type": "function"
    },
    {
      "inputs": [
        {
          "internalType": "address",
          "name": "",
          "type": "address"
        },
        {
          "internalType": "uint256",
          "name": "",
          "type": "uint256"
        }
      ],
      "name": "sellOffers",
      "outputs": [
        {
          "internalType": "uint256",
          "name": "tokenAmount",
          "type": "uint256"
        },
        {
          "internalType": "uint256",
          "name": "etherAmount",
          "type": "uint256"
        }
      ],
      "stateMutability": "view",
      "type": "function"
    },
    {
      "inputs": [],
      "name": "token",
      "outputs": [
        {
          "internalType": "contract ClaimToken",
          "name": "",
          "type": "address"
        }
      ],
      "stateMutability": "view",
      "type": "function"
    }
  ],
  "bytecode": {
    "object": "0x608060405234801561001057600080fd5b506040516110a33803806110a383398101604081905261002f91610054565b600080546001600160a01b0319166001600160a01b0392909216919091179055610084565b60006020828403121561006657600080fd5b81516001600160a01b038116811461007d57600080fd5b9392505050565b611010806100936000396000f3fe60806040526004361061009c5760003560e01c80638f033028116100645780638f0330281461018b57806398d91a26146101ab57806399e5bcf4146101cb578063cee0d8911461020a578063f8effba31461022a578063fc0c546a1461023d57600080fd5b8063046e9af7146100a15780631a46829c146100b65780635e238103146100d65780636c951ccc1461012f578063823357fa1461016b575b600080fd5b6100b46100af366004610dac565b610275565b005b3480156100c257600080fd5b506100b46100d1366004610dd8565b61044d565b3480156100e257600080fd5b506101156100f1366004610df1565b60026020908152600092835260408084209091529082529020805460019091015482565b604080519283526020830191909152015b60405180910390f35b34801561013b57600080fd5b5061011561014a366004610df1565b60016020818152600093845260408085209091529183529120805491015482565b34801561017757600080fd5b506100b4610186366004610dac565b6104f8565b34801561019757600080fd5b506100b46101a6366004610e1b565b610674565b3480156101b757600080fd5b506100b46101c6366004610dd8565b610883565b3480156101d757600080fd5b506101eb6101e6366004610dd8565b610992565b604080516001600160a01b039093168352602083019190915201610126565b34801561021657600080fd5b506101eb610225366004610dd8565b6109ca565b6100b4610238366004610e47565b6109da565b34801561024957600080fd5b5060005461025d906001600160a01b031681565b6040516001600160a01b039091168152602001610126565b6001600160a01b03811660009081526002602090815260408083208584529091529020546102be5760405162461bcd60e51b81526004016102b590610e69565b60405180910390fd5b6001600160a01b038116600090815260026020908152604080832085845290915290206001015434146103335760405162461bcd60e51b815260206004820152601f60248201527f5472616465436c61696d733a2077726f6e6720657468657220616d6f756e740060448201526064016102b5565b600080546001600160a01b0383811683526002602090815260408085208786529091529283902054925163a9059cbb60e01b81523360048201526024810193909352169063a9059cbb906044016020604051808303816000875af115801561039f573d6000803e3d6000fd5b505050506040513d601f19601f820116820180604052508101906103c39190610ea0565b6103df5760405162461bcd60e51b81526004016102b590610ec9565b6040516001600160a01b038216903480156108fc02916000818181858888f19350505050158015610414573d6000803e3d6000fd5b506001600160a01b03811660009081526002602090815260408083208584529091528120818155600101556104498183610b47565b5050565b33600090815260016020818152604080842085855290915290912001546104865760405162461bcd60e51b81526004016102b590610e69565b33600081815260016020818152604080842086855290915280832090910154905181156108fc0292818181858888f193505050501580156104cb573d6000803e3d6000fd5b50336000818152600160208181526040808420868552909152822082815501556104f59082610c85565b50565b6001600160a01b0381166000908152600160208181526040808420868552909152909120015461053a5760405162461bcd60e51b81526004016102b590610e69565b600080546001600160a01b03838116808452600160209081526040808620888752909152938490205493516323b872dd60e01b81523360048201526024810191909152604481019390935216906323b872dd906064016020604051808303816000875af11580156105af573d6000803e3d6000fd5b505050506040513d601f19601f820116820180604052508101906105d39190610ea0565b6105ef5760405162461bcd60e51b81526004016102b590610ec9565b6001600160a01b0381166000908152600160208181526040808420868552909152808320909101549051339282156108fc02929190818181858888f19350505050158015610641573d6000803e3d6000fd5b506001600160a01b0381166000908152600160208181526040808420868552909152822082815501556104498183610c85565b600082116106945760405162461bcd60e51b81526004016102b590610f00565b600081116106f35760405162461bcd60e51b815260206004820152602660248201527f5472616465436c61696d733a206e6f20657468657220616d6f756e742073706560448201526518da599a595960d21b60648201526084016102b5565b3360009081526002602090815260408083208684529091529020541561072b5760405162461bcd60e51b81526004016102b590610f46565b6000546040516323b872dd60e01b8152336004820152306024820152604481018490526001600160a01b03909116906323b872dd906064016020604051808303816000875af1158015610782573d6000803e3d6000fd5b505050506040513d601f19601f820116820180604052508101906107a69190610ea0565b6107c25760405162461bcd60e51b81526004016102b590610ec9565b60408051808201825292835260208084019283523360008181526002808452848220888352845284822096518755945160019687015583518085019094529083529082019485526004805494850181559052517f8a35acfbc15ff81a39ae7d344fd709f28e8600b4aa8c65c6b64bfe7fe36bd19b9290910291820180546001600160a01b0319166001600160a01b0390921691909117905590517f8a35acfbc15ff81a39ae7d344fd709f28e8600b4aa8c65c6b64bfe7fe36bd19c90910155565b3360009081526002602090815260408083208484529091529020546108ba5760405162461bcd60e51b81526004016102b590610e69565b60008054338083526002602090815260408085208686529091529283902054925163a9059cbb60e01b8152600481019190915260248101929092526001600160a01b03169063a9059cbb906044016020604051808303816000875af1158015610927573d6000803e3d6000fd5b505050506040513d601f19601f8201168201806040525081019061094b9190610ea0565b6109675760405162461bcd60e51b81526004016102b590610ec9565b3360008181526002602090815260408083208584529091528120818155600101556104f59082610b47565b600381815481106109a257600080fd5b6000918252602090912060029091020180546001909101546001600160a01b03909116915082565b600481815481106109a257600080fd5b60003411610a2a5760405162461bcd60e51b815260206004820152601a60248201527f5472616465436c61696d733a206e6f2065746865722073656e7400000000000060448201526064016102b5565b60008111610a4a5760405162461bcd60e51b81526004016102b590610f00565b336000908152600160208181526040808420868552909152909120015415610a845760405162461bcd60e51b81526004016102b590610f46565b6040805180820182529182523460208084019182523360008181526001808452858220888352845285822096518755935195840195909555835180850190945283528201938452600380549182018155909252517fc2575a0e9e593c00f959f8c92f12db2869c3395a3b0502d05e2516446f71f85b600290920291820180546001600160a01b0319166001600160a01b0390921691909117905590517fc2575a0e9e593c00f959f8c92f12db2869c3395a3b0502d05e2516446f71f85c90910155565b60005b600454811015610c8057826001600160a01b031660048281548110610b7157610b71610f87565b60009182526020909120600290910201546001600160a01b0316148015610bbb57508160048281548110610ba757610ba7610f87565b906000526020600020906002020160010154145b15610c785760048054610bd090600190610f9d565b81548110610be057610be0610f87565b906000526020600020906002020160048281548110610c0157610c01610f87565b60009182526020909120825460029092020180546001600160a01b0319166001600160a01b039092169190911781556001918201549101556004805480610c4a57610c4a610fc4565b60008281526020812060026000199093019283020180546001600160a01b0319168155600101559055505050565b600101610b4a565b505050565b60005b600354811015610c8057826001600160a01b031660038281548110610caf57610caf610f87565b60009182526020909120600290910201546001600160a01b0316148015610cf957508160038281548110610ce557610ce5610f87565b906000526020600020906002020160010154145b15610d885760038054610d0e90600190610f9d565b81548110610d1e57610d1e610f87565b906000526020600020906002020160038281548110610d3f57610d3f610f87565b60009182526020909120825460029092020180546001600160a01b0319166001600160a01b039092169190911781556001918201549101556003805480610c4a57610c4a610fc4565b600101610c88565b80356001600160a01b0381168114610da757600080fd5b919050565b60008060408385031215610dbf57600080fd5b82359150610dcf60208401610d90565b90509250929050565b600060208284031215610dea57600080fd5b5035919050565b60008060408385031215610e0457600080fd5b610e0d83610d90565b946020939093013593505050565b600080600060608486031215610e3057600080fd5b505081359360208301359350604090920135919050565b60008060408385031215610e5a57600080fd5b50508035926020909101359150565b6020808252601c908201527f5472616465436c61696d733a206e6f206f666665722065786973747300000000604082015260600190565b600060208284031215610eb257600080fd5b81518015158114610ec257600080fd5b9392505050565b6020808252601c908201527f5472616465436c61696d733a207472616e73666572206661696c656400000000604082015260600190565b60208082526026908201527f5472616465436c61696d733a206e6f20746f6b656e20616d6f756e742073706560408201526518da599a595960d21b606082015260800190565b60208082526021908201527f5472616465436c61696d733a206f6666657220616c72656164792065786973746040820152607360f81b606082015260800190565b634e487b7160e01b600052603260045260246000fd5b81810381811115610fbe57634e487b7160e01b600052601160045260246000fd5b92915050565b634e487b7160e01b600052603160045260246000fdfea26469706673582212205cf7d7291a9eccc767899d2a2c9758c38ca5c32cf9fe9f4c9753599904ee9f1364736f6c63430008160033",
    "linkReferences": {}
  },
  "methodIdentifiers": {
    "acceptBuyOffer(uint256,address)": "823357fa",
    "acceptSellOffer(uint256,address)": "046e9af7",
    "buyOfferIndex(uint256)": "99e5bcf4",
    "buyOffers(address,uint256)": "6c951ccc",
    "cancelBuyOffer(uint256)": "1a46829c",
    "cancelSellOffer(uint256)": "98d91a26",
    "createBuyOffer(uint256,uint256)": "f8effba3",
    "createSellOffer(uint256,uint256,uint256)": "8f033028",
    "sellOfferIndex(uint256)": "cee0d891",
    "sellOffers(address,uint256)": "5e238103",
    "token()": "fc0c546a"
  },
  "id": 29
}